:020000040000FA
:10000000F03F0020D50600006309000065090000EC
:1000100000000000000000000000000000000000E0
:100020000000000000000000000000006109000066
:1000300000000000000000006109000061090000EC
:100040006109000061090000610900006109000008
:1000500061090000610900006109000061090000F8
:100060006109000061090000210900006109000028
:1000700061090000610900006109000061090000D8
:1000800061090000610900006109000061090000C8
:1000900061090000610900006109000061090000B8
:1000A00061090000610900006109000061090000A8
:1000B000610900006109000061090000F8B5C0464F
:1000C000F8BC08BC9E467047B5060000F8B5C046AF
:1000D000F8BC08BC9E4670478D060000F0B5C646C9
:1000E00000B5574B9B7D002B17D0554A137EDBB2D2
:1000F000927D52B2002A13DB514A137EDBB2927D0D
:10010000D20702D5DB0700D582E04D4A137EDBB271
:10011000927D520701D55B074BD404BC9046F0BDDD
:100120005BB2002BE8DA464B5B8B07221340E3D02F
:10013000444CE38500F02EFB414B84221A752C239E
:100140000022E254636A002BD6D03E4A906A984758
:10015000D2E7BB68F35C0B859368013393609368C7
:1001600098460B7E23420BD0404509D94B682B4063
:10017000012BEED163469B685B009B5B0B85EBE735
:10018000304B9A685B689A42BFD32E4B00221A7597
:100190005A602B4A01211175DB68002BB5D0294A22
:1001A00010699847B1E727490A6A89695200535292
:1001B00015E0244A2C23D35C002BAED0214B1A6AC5
:1001C000DB699A42A9D21E4A138D9BB2516807225D
:1001D0000A40012AE7D01B4A116A92695354194B0D
:1001E0001A6A01321A621A6ADB699A4200D094E7ED
:1001F000144B00222C215A54DA61114A58311175DE
:100200005B6A002B00D188E70E4A906A984784E722
:100210000C4B1B7D002B00D177E70A4B9A6858687E
:10022000074B1B7EDB07ABD58242A9D2054B1E686C
:10023000034907259C461F001A00012496E7C04683
:10024000000800428C00002030B583B000230193E9
:100250002C4B1B78002B2FD0412000F071FBF82491
:1002600064022200042101A800F062FB0028F8D0FB
:10027000FF23019A13400A2B2BD00B2B30D022489E
:100280004C3000F0C7FA80235B011C68621C0CD064
:100290005D6800F05DFB0028FBD11C4BC046013BB4
:1002A000002BFBD184F308882847164B1B78002BC2
:1002B0001DD0022003B030BD1548134B1833020087
:1002C00032CB32C2196811601B79137100F0A2FAA7
:1002D000C2E70D482C3000F09DFA80235B01D4E783
:1002E00009483C3000F096FA80235B02CDE70848CD
:1002F000054B6033020032CB32C21B68136000F042
:1003000089FAD6E7E200002014030000FFFF000096
:1003100050000020424F4F542D4C6F616465722095
:1003200046494E49534845440D0A000053746172D2
:1003300074204A554D50202E2E2E0D0A000000002C
:10034000466C617368204A756D7020410D0A00008B
:10035000466C617368204A756D7020420D0A00007A
:10036000466C61736820213D2041206F7220420D50
:100370000A0000004A554D5020446F6E65202E2E15
:100380002E0D0A004A554D502052455452592043D3
:100390004845434B0D0A0000BC0000201C00000033
:1003A00000000000E200002001000000000000004A
:1003B000E3000020010000000000000050000020C9
:1003C0003C000000000000008C0000203000000015
:1003D00000000000E000002002000000000000001B
:1003E000D8000020040000000000000000000020F1
:1003F0005000000000000000DC00002004000000AD
:1004000000000000000000000000000044444444DC
:100410004444444444444444174B5A6852031B68C0
:10042000DB0C13439B029B0A144A9363002353750E
:10043000110004228B691A42FCD110491022CB68AA
:100440001A42FCD00E4B00229A611A610D4B0E4AE3
:100450001A62190004224B681A42FCD1094AD023BF
:100460004021D15010009031402243581A42FCD014
:10047000064B0422DA6170472060800000100040C3
:1004800000140040001C004006010100000800406C
:1004900070B500282FD0194B1A7D0023002A26D1D1
:1004A000164B1860596001321A75154B1B7EDB071D
:1004B00016D500291DD00023114C0726012507E081
:1004C000C25C22850133227E2A420AD0994208D991
:1004D00062683240012AF3D15A00825A2285F1E73C
:1004E0000023064A9360064B01229A7501231800E7
:1004F00070BD0B00F5E70023F9E7C0468C00002033
:10050000000800420021F0B5174B184A934208D367
:100510000027174A13685168002B05D1002903D121
:10052000F0BD19700133F1E7100095680C305C18CC
:10053000002D16D00B25ED1A5219A3420AD10B003B
:10054000032213405A1E9341890859188900401804
:100550000200DFE75D1CAE5C1E702B00EDE71F7034
:100560000133A342FBD1F3E700000020000000208C
:100570009803000070B5134B06225A6000F0DCF9B6
:10058000FFF74AFF00F0E0F90F4BC22189005A58EB
:100590000E4802405A508022D2001A6000F0BCF986
:1005A00000F0C2F90A480B4B020032CB32C212CB28
:1005B00012C2198811809B78937000F02BF90120EA
:1005C00070BDC0460040004100E100E0FFFF00FFB9
:1005D000500000201403000000230E4A10B51360E1
:1005E0000D4A13600D4A13600D4A13600D4A1360E3
:1005F0000D4A536213610133936000F0B4F900F0C7
:10060000B2F90A4C0A4B9C4200D310BD08CC984763
:10061000F8E7C046DC0000200C00002008000020A5
:10062000000000200400002010000020C80000008E
:10063000CC000000114B124A1A60124A9A81C02263
:1006400092025A601A00D369002BFCD10B4A13683E
:1006500002210B431360D369002BFCD10A4B00220B
:100660009A61DA611A622C215A545A621A605A60ED
:100670009A601A75DA60DA857047C0460008004251
:10068000040110402BF6FFFF8C00002010B5064C33
:100690002378002B07D1054B002B02D0044800E043
:1006A00000BF0123237010BDBC000020000000002B
:1006B00000000000044B10B5002B03D00349044890
:1006C00000E000BF10BDC04600000000C0000020D8
:1006D0000000000010B50A4B98470A4B984700F0FD
:1006E0003BF9094BFF229343084A9360084B984714
:1006F000084B9847084B984700F030F8FEE7C04693
:10070000FF080000FF0800000000000000ED00E00E
:10071000D9050000FF080000FF08000070B50C4B71
:100720001B78002B01D0012070BD094B01221A70EB
:100730000848094B7033020032CB32C2196811608D
:10074000998891809B79937100F064F8EBE7C0463B
:10075000E2000020500000201403000070B50C4B94
:100760001A88FF231B029A4210D8094C0026250044
:1007700000E0268000F09CF80028FAD12B88013395
:100780009BB22B80FF2212029342F3D9012070BD4D
:10079000E0000020094B5B8B5B070DD0074B8022EC
:1007A0001A76793A5A831B7E5B0705D5034B0421E1
:1007B0001A8D1A7E0A42FBD17047C04600080042DB
:1007C00010B5012809D0002803D0022809D0002044
:1007D00010BD0020FFF7CEFEFAE70020FFF734FD42
:1007E000F6E70020FFF79AFFF2E78223DB050122FC
:1007F000DE215A5401315A54BE32BD399954BD3AA2
:10080000DE315A504221FF315A542F32FF3200213B
:100810009954704770B50500074C00F099F800280E
:1008200002D0013C002CF8D1280000F060F8010053
:10083000280000F017F870BD932B000010B50423BA
:100840005C2801D9180010BD1B33034001219940D9
:10085000400982231B049C466044C00100F016F846
:100860000300EFE770B5FFF713FE051E01D1280066
:1008700070BD054C00F04AF80028F8D0013C002C6F
:10088000F8D10500F3E7C046932B00008023020057
:100890009A438223DB059A4203D0044A0423904200
:1008A00001D18161012318007047C0460001004159
:1008B00010B5054C2078FFF783FF2070002302223B
:1008C00082425B41D8B210BDE3000020002310B586
:1008D0009A4200D110BDCC5CC4540133F8E710B586
:1008E00013000A001900FFF7F1FF012010BD0300FB
:1008F0001A78002A01D1181A70470133F8E77047B7
:10090000014B84225A60704700400041014B187D22
:10091000C0B270478C000020BFF35F8F62B6704793
:1009200010B5FFF7DBFB10BD10B5FFF7E9FF10BDF9
:1009300010B5FFF7D4FF10BD10B5FFF756FF10BD7F
:1009400010B5FFF77BFF10BD10B5FFF773FE10BDAC
:1009500010B5FFF7DBFF10BD10B5FFF7D3FD10BDDD
:10096000FEE7FEE7FEE77047000000000000000021
:100970000000000000000000000000000000000077
:100980000000000000000000000000000000000067
:100990000000000000000000000000000000000057
:1009A0000000000000000000000000000000000047
:10100000F83F00204D8B000007650000976A000044
:1010100000000000000000000000000000000000D0
:1010200000000000000000000000000077780000D1
:1010300000000000000000007778000077780000D2
:1010400077780000319D000077780000058B000064
:1010500077780000777800007778000077780000D4
:101060007778000029A4000021A40000594700005F
:10107000A945000049420000F943000077780000CC
:1010800077780000777800007778000077780000A4
:1010900019A400007778000011A400007778000000
:1010A0007778000077780000777800007778000084
:1010B000777800007778000077780000F8B5C046B0
:1010C000F8BC08BC9E467047A5880000F8B5C0462D
:1010D000F8BC08BC9E4670477D880000485300005D
:1010E00001000000282E00201C000000000000006D
:1010F0006F26002001000000000000006F27002084
:101100000100000000000000642B00203C000000F3
:10111000000000000E2F0020010000000100000070
:10112000040000000F2F002001000000010000005B
:1011300001000000102F002001000000010000004D
:101140000A00000010000020450E00000000000012
:10115000AB2E002001000000000000007C2E0020CB
:101160000400000000000000BA2E00200100000072
:1011700000000000BB2E0020010000000000000065
:1011800070270020CC000000000000003C28002058
:10119000CC0000000000000008290020CC00000066
:1011A00000000000112F00200100000001000000DD
:1011B00001000000550E00200100000000000000AA
:1011C000702200200001000000000000560E0020E8
:1011D0000100000000000000570E00200100000088
:1011E00000000000BE2E00200100000000000000F2
:1011F000802E00200400000000000000BF2E002010
:101200000100000000000000842E00200400000007
:1012100000000000C02E00200100000000000000BF
:10122000C12E00200100000000000000882E0020D8
:101230000400000000000000262E00200200000034
:101240000000000070250020FF00000000000000EA
:10125000A02B00203C00000000000000122F002006
:10126000010000000100000001000000A22E00208B
:101270000200000000000000C22E0020010000005B
:1012800000000000C32E002001000000000000004C
:10129000C42E00200100000000000000580E0020B5
:1012A000180C000000000000A62E00200200000024
:1012B00000000000C52E002001000000000000001A
:1012C000132F0020010000000100000001000000B9
:1012D00070260020FF00000000000000C62E002045
:1012E0000100000000000000C72E002001000000E7
:1012F00000000000E82D0020200000000000000099
:10130000C82E00200100000000000000C92E0020AF
:101310000100000000000000CA2E002001000000B3
:1013200000000000CB2E00200100000000000000A3
:10133000CC2E00200100000000000000CD2E002077
:101340000100000000000000CE2E0020010000007F
:1013500000000000CF2E002001000000000000006F
:10136000DC2B00203C00000000000000142F0020B7
:10137000010000000100000064000000702D00204A
:101380002800000000000000D02E00200100000016
:1013900000000000D12E002001000000000000002D
:1013A000D22E00200100000000000000D32E0020FB
:1013B0000100000000000000182C00203C0000008C
:1013C00000000000D42E00200100000000000000FA
:1013D000701A00200008000000000000542C0020BB
:1013E0003C00000000000000082E00201E0000004D
:1013F00000000000D52E00200100000000000000C9
:10140000D62E002001000000000000008C2E0020DD
:101410000400000000000000E42A0020400000005A
:1014200000000000242B002040000000000000000D
:10143000AE2E00200200000000000000E02E002080
:101440000400000001000000FFFFFFFFBC2E002091
:101450000200000000000000B82E00200200000082
:1014600000000000B42E0020020000000000000078
:10147000B02E00200200000000000000AC2E002072
:101480000200000000000000982D0020280000004D
:1014900000000000C02D0020280000000000000017
:1014A000D72E00200100000000000000D82E0020F0
:1014B0000100000000000000A82E00200300000032
:1014C00000000000D92E00200100000000000000F4
:1014D000152F0020010000000100000001000000A5
:1014E000442E00201400000000000000DA2E00202E
:1014F0000100000000000000DB2E002001000000C1
:1015000000000000DC2E00200100000000000000B0
:10151000A42E00200200000000000000A02E0020E9
:101520000200000000000000B22E002002000000B7
:1015300000000000702300200001000000000000F7
:10154000702400200001000000000000DD2E0020BB
:101550000100000000000000DE2E0020020000005C
:1015600001000000EA000000E42E0020020000005C
:1015700001000000C1000000E62E00200200000073
:101580000100000008000000E82E0020020000001A
:1015900001000000C4000000EA2E0020020000004C
:1015A00001000000E1000000EC2E0020020000001D
:1015B00001000000E7000000EE2E00200200000005
:1015C00001000000E5000000F02E002002000000F5
:1015D00001000000E4000000F22E002002000000E4
:1015E00001000000E6000000F42E002002000000D0
:1015F00001000000E3000000F62E002002000000C1
:1016000001000000DB000000F82E002002000000B6
:1016100001000000E2000000FA2E0020020000009D
:1016200001000000E8000000FC2E00200200000085
:101630000100000001000000FE2E0020020000005A
:101640000100000080000000002F002002000000C8
:101650000100000010000000022F00200200000026
:101660000100000004000000042F00200200000020
:101670000100000020000000062F002002000000F2
:101680000100000008000000082F002002000000F8
:1016900001000000010000000A2F002002000000ED
:1016A0000100000040000000162F00200100000093
:1016B0000100000007000000172F002001000000BB
:1016C000010000001C0000000C2F002002000000A0
:1016D0000100000000100000902E00200400000017
:1016E00000000000D4290020C0000000000000001D
:1016F000C02C00202C00000000000000EC2C00207A
:101700002C00000000000000182D00202C0000001C
:1017100000000000442D00202C000000000000000C
:10172000582E00200C00000000000000902C00202B
:101730003000000000000000642E002008000000BF
:10174000000000006C2E00200800000000000000D7
:10175000742E00200800000000000000B62E0020BB
:101760000200000000000000942E00200400000091
:1017700000000000942A002050000000000000003B
:10178000982E002004000000000000009C2E002085
:101790000400000000000000000000000000000045
:1017A0004444444470B502283BD031D9032854D076
:1017B000042834D1B64B1C88002C30D0601E002881
:1017C00000D1FEE100220023B24DE95C4A40013322
:1017D0009BB28342F9D3AF4B1B5C934200D1E3E051
:1017E000AC4B1B78832B00D1C0E100D8A9E1842B3E
:1017F00000D1CDE1852B12D1032008F059FA08F071
:10180000BBFD022800D9D5E1012008F071FA06E0FD
:10181000012804D100239E4A13809F4A138001208F
:1018200070BD9B4C258808F033FE9A4B5855238891
:10183000002B03D1974B1B78FE2B04D0944A1388BE
:1018400001331380EBE70121F32008F04DFC602801
:10185000F4D0402008F0F8FDF0E78F4B1C888D4B4A
:10186000187890284FD0FE280CD0612800D18AE04B
:10187000210008F039FC08F00FFE874A1388013375
:101880001380CCE70121F32008F02EFC210008F0A2
:101890002BFC08F001FE0121F32008F025FC602854
:1018A0001AD00121F32008F01FFC60281BD0012171
:1018B000F32008F019FC6028DFD108F045FD01286D
:1018C000DBD1402CD9D108F0CDFA402008F0BCFD86
:1018D000724B08221A60D0E708F036FD0128E0D0EC
:1018E000012CDED1C9E708F02FFD0128DFD0402C04
:1018F000DDD1012008F0B6FA402008F0A5FD674BC5
:1019000008221A60B9E72100902008F0EDFB08F0EA
:10191000C3FD042C09D0032CAFD15E4B18780321F2
:1019200008F0E2FB5E4B1870A7E75D4B1B78012BBC
:1019300007D0002B11D0022B16D05A4B00221A7060
:101940009BE7002008F00CFD08F05AFB042008F08B
:10195000AFF9544B00221A708FE7022008F0A8F963
:10196000504B00221A7088E74E4A13780133DBB2DD
:101970001370322B81D14C4B187808F09DFC494BE9
:1019800000221A7079E72100612008F0ADFB08F011
:1019900083FD404B1878032108F0A6FB012800D0F6
:1019A0006BE708F077FC68E7042C0CD90024394D6C
:1019B000374E2A5D2878210008F0FAFA0134A4B2E3
:1019C0003388A342F5D8334B1B78832B00D17BE0BF
:1019D00018D9F12B00D1ACE031D8842B00D18CE0A8
:1019E000852B00D01BE7022008F082F908F0BEFC2E
:1019F000042800D196E0012008F05AF92A4B8522EC
:101A00001A700CE7682B2BD012D9802B2CD0812B8D
:101A100000D004E7022008F06BF908F0A7FC0128C9
:101A20004BD0012008F044F91F4B81221A70F6E6D2
:101A3000672B00D0F3E6672008F03EFCEFE6F42BBE
:101A40007BD0FE2B00D0EAE60121F32008F04CFB0E
:101A5000602800D0E3E6114B08221A601A60DEE627
:101A6000682008F029FCDAE60A4BDB78012B08D065
:101A7000022B1BD0802008F01FFC0B4B80221A7019
:101A8000CDE6042008F014F9002008F069FCF1E725
:101A9000A62E0020580E0020A22E002000E100E01B
:101AA000C22E0020C42E0020C32E0020052008F0E6
:101AB000FFF8012008F054FCDCE7803008F0FCFB64
:101AC000022008F0F5F8AFE7022008F011F908F05D
:101AD0004DFC022803D008F049FC032809D18320DB
:101AE00008F0EAFB022008F0E3F8394B83221A7071
:101AF00095E6012008F0DCF8F7E7022008F0F8F896
:101B000008F034FC032806D0012008F0D1F8304B4F
:101B100084221A7083E6813008F0CEFB022008F0A0
:101B2000C7F8F4E7813008F0C7FB002008F0C0F8E0
:101B300064E7F12008F0C0FB71E6F42008F0BCFB7C
:101B40006DE6812B00D06AE6032008F0B1F808F0BA
:101B500013FC022803D8012008F0CAF85FE602202F
:101B600008F0C6F8012008F0A3F858E6032008F0B2
:101B70009FF808F001FC022803D8012008F0B8F80B
:101B80004DE6022008F0B4F8012008F091F846E68E
:101B9000032008F08DF808F0EFFB022803D801209D
:101BA00008F0A6F83BE6022008F0A2F8012008F0B1
:101BB0007FF834E6022008F09BF8012008F078F85E
:101BC0002DE6044B1B78002B00D009E627E6C04623
:101BD000C32E0020580E002000000000963007772A
:101BE0002C610EEEBA51099919C46D078FF46A7011
:101BF00035A563E9A395649E3288DB0EA4B8DC7931
:101C00001EE9D5E088D9D2972B4CB609BD7CB17EB0
:101C1000072DB8E7911DBF906410B71DF220B06A80
:101C20004871B9F3DE41BE847DD4DA1AEBE4DD6D90
:101C300051B5D4F4C785D38356986C13C0A86B6490
:101C40007AF962FDECC9658A4F5C0114D96C0663B0
:101C5000633D0FFAF50D088DC8206E3B5E10694C90
:101C6000E44160D5727167A2D1E4033C47D4044BD0
:101C7000FD850DD26BB50AA5FAA8B5356C98B242B0
:101C8000D6C9BBDB40F9BCACE36CD832755CDF4530
:101C9000CF0DD6DC593DD1ABAC30D9263A00DE5160
:101CA0008051D7C81661D0BFB5F4B42123C4B35650
:101CB0009995BACF0FA5BDB89EB802280888055FD0
:101CC000B2D90CC624E90BB1877C6F2F114C685830
:101CD000AB1D61C13D2D66B69041DC760671DB011E
:101CE000BC20D2982A10D5EF8985B1711FB5B606F0
:101CF000A5E4BF9F33D4B8E8A2C9077834F9000F30
:101D00008EA8099618980EE1BB0D6A7F2D3D6D08CF
:101D1000976C6491015C63E6F4516B6B62616C1CBF
:101D2000D83065854E0062F2ED95066C7BA5011BEF
:101D3000C1F4088257C40FF5C6D9B06550E9B7128F
:101D4000EAB8BE8B7C88B9FCDF1DDD62492DDA154F
:101D5000F37CD38C654CD4FB5861B24DCE51B53A6F
:101D60007400BCA3E230BBD441A5DF4AD795D83D6F
:101D70006DC4D1A4FBF4D6D36AE96943FCD96E34AF
:101D8000468867ADD0B860DA732D0444E51D03338F
:101D90005F4C0AAAC97C0DDD3C710550AA4102279F
:101DA00010100BBE86200CC925B56857B3856F206F
:101DB00009D466B99FE461CE0EF9DE5E98C9D929CF
:101DC0002298D0B0B4A8D7C7173DB359810DB42E0F
:101DD0003B5CBDB7AD6CBAC02083B8EDB6B3BF9A5B
:101DE0000CE2B6039AD2B1743947D5EAAF77D29DE7
:101DF0001526DB048316DC73120B63E3843B6494C7
:101E00003E6A6D0DA85A6A7A0BCF0EE49DFF0993C6
:101E100027AE000AB19E077D44930FF0D2A3088736
:101E200068F2011EFEC206695D5762F7CB676580E6
:101E300071366C19E7066B6E761BD4FEE02BD389E6
:101E40005A7ADA10CC4ADD676FDFB9F9F9EFBE8E46
:101E500043BEB717D58EB060E8A3D6D67E93D1A186
:101E6000C4C2D83852F2DF4FF167BBD16757BCA666
:101E7000DD06B53F4B36B248DA2B0DD84C1B0AAF06
:101E8000F64A0336607A0441C3EF60DF55DF67A886
:101E9000EF8E6E3179BE69468CB361CB1A8366BC16
:101EA000A0D26F2536E2685295770CCC03470BBB66
:101EB000B91602222F260555BE3BBAC5280BBDB266
:101EC000925AB42B046AB35CA7FFD7C231CFD0B506
:101ED0008B9ED92C1DAEDE5BB0C2649B26F263ECF8
:101EE0009CA36A750A936D02A906099C3F360EEB06
:101EF0008567077213570005824ABF95147AB8E2C6
:101F0000AE2BB17B381BB60C9B8ED2920DBED5E5A5
:101F1000B7EFDC7C21DFDB0BD4D2D38642E2D4F1F5
:101F2000F8B3DD686E83DA1FCD16BE815B26B9F685
:101F3000E177B06F7747B718E65A0888706A0FFFE5
:101F4000CA3B06665C0B0111FF9E658F69AE62F8A5
:101F5000D3FF6B6145CF6C1678E20AA0EED20DD7A5
:101F60005483044EC2B30339612667A7F71660D0C5
:101F70004D476949DB776E3E4A6AD1AEDC5AD6D905
:101F8000660BDF40F03BD83753AEBCA9C59EBBDE25
:101F90007FCFB247E9FFB5301CF2BDBD8AC2BACAD5
:101FA0003093B353A6A3B4240536D0BA9306D7CD45
:101FB0002957DE54BF67D9232E7A66B3B84A61C465
:101FC000021B685D942B6F2A37BE0BB4A18E0CC325
:101FD0001BDF055A8DEF022D0023F0B5060015001A
:101FE000AFB00591019305990B78002B00D10FE15B
:101FF00001235B420A930EAB00240C9380230994C7
:102000000B940D930B5D002B01D0252B2AD1002CB6
:1020100006D02200300007F01AFD059B1B1905931E
:10202000059B1A78252A00D0E7E001330293059337
:10203000022310219C460827059803782B2B1BD0E0
:1020400025D8202B1BD0232B1DD02A2B2AD006F0DD
:102050000DFF0B90059B1A78303A092A33D80133CB
:102060000593F7E70134CDE70122099B801803931C
:10207000134309930590DFE70423099A0EE0099BB7
:1020800003933B430BE0099B03930B4307E02D2B8A
:10209000EAD0302BD9D16246099B039313430993AD
:1020A0000130E7E72B6801301A1D1B6805902A6094
:1020B0000B93002B07DA099A5B42039201220399E2
:1020C0000B934A400992099BDA0702D502229343F7
:1020D0000993059B1A782E2A0ED10022581C0A92C9
:1020E00005905A782A2A28D1023305932B681A1DA5
:1020F0001B682A6003930A9305A807F00FFA059B53
:102100000700187808F0B8F8692800D183E035DCBA
:10211000632800D1D6E01BDC252800D1DFE0612850
:1021200059D0252306AA1370029B05930023099317
:102130000B93013B0A930233B2E006F097FE0A903C
:10214000059B1A78303A092AD6D801330593F7E768
:10215000642860D06728E4DC2A00390006A807F06C
:1021600036FB002800D1A9E0059B09A95A1C05925D
:102170001B7806AA300008F0DBF93DE0702800D19A
:102180007DE016DC6E2800D191E06F28C9D12B00CC
:102190000022390006A804F01FFC002800D18DE0C1
:1021A000059B06AA013309A93000059305F072FDCD
:1021B00022E0752840D078284FD07328B1D1802FE5
:1021C00000D07BE0059B2A6801330593131D2B602B
:1021D0001268002364E02A00390006A807F0F7FA25
:1021E000002800D16AE0059B09A95A1C05921B78BA
:1021F00006AA300008F09CF92418019B1C19A34280
:1022000000DC74E04F223B4B1A6001235B420193D8
:1022100001982FB0F0BD2B000122390006A804F070
:10222000DBFB00284AD0059B06AA013309A9300030
:10223000059304F08BFCDFE72B000022390006A891
:1022400004F0CAFB002839D0059B06AA013309A96E
:102250003000059306F08AF8CEE72B000022390003
:1022600006A804F0B9FB002828D0059B5A1C05924B
:102270001B7806AA09A9300003F0C4F9BCE72B00BB
:102280000022F02106A804F0A7FB002816D0059B29
:10229000079A01330593069B134306D1164A16325B
:1022A00009A9300006F000FAA6E77823E1E7019BD0
:1022B00039001A1906A82B0005F08EFD059B013385
:1022C00005939AE7802FF9D1059B013305932B687D
:1022D0001A1D1B682A6006AA13700123E0E7802FED
:1022E000ECD1059B06AA013305931070F5E7019424
:1022F00079E6C0469C2E0020149E0000F0B5DE4614
:1023000057464E464546E0B597B00221832007F078
:10231000EBFE0026002861D1AE4B802212019446CC
:1023200063441F00AB4C04252D1B291989B283205F
:1023300007F0DAFE20700134BC42F6D1A64A2C2305
:10234000D55C2C02641B0321832007F0CDFE013CE9
:1023500005190321832007F0C7FEFF284BD0EB00AF
:102360009B469E4B1B68002E00D11DE1994A944666
:10237000B44411009A4FFF241A006346AC461D0076
:10238000100A0B78534023409B00DA594240013138
:10239000A942F5D165461300904A13609149924CC9
:1023A00062467431200007F0F8FD200006F0D2FAF2
:1023B0008E4A138801331380330A9846FF2E00D8C3
:1023C00000E1EB0204930024834B9A469946884B24
:1023D00044330393864B2833019347E00121832044
:1023E00007F082FE06000221832007F07DFE360200
:1023F0000238361890E778492C228B5C01338B54D5
:10240000ADE7EF2E1AD9049B802252019446634413
:10241000DF19002305941C00E1B2029805F0D2FFF9
:10242000380008F069F83900724808F061F80028AF
:10243000F9D001344037042CEED1059C80277F026F
:102440003A00402106A808F04FF80028F8D062B6FC
:102450006749654F32000C31380007F09EFD3800A7
:1024600006F078FA0134444500D3ABE05B461E1910
:1024700053461B6BAB4233D9574B1B7A012BE7D129
:102480002702544B9C46BC446346029340220021E1
:1024900006A807F0E1FE72B6574B1B780A2BB0D0A6
:1024A0000B2BCBD1EF2EC9D8049B8022520194462E
:1024B0006344DF19002305941C00E1B2029805F083
:1024C00081FF380008F018F839004A4808F010F881
:1024D0000028F9D001344037042CEED1059CADE73B
:1024E0004A46526BAA4224D83B4B9B6BAB42B9D9AC
:1024F000D200B61A3C4F32000399380007F04DFD68
:10250000380006F027FA344A2023D35C012BA9D0E7
:10251000022B3CD0032BA5D12F4B9A6A002AA1D0C5
:10252000013A20022B4B9C466044310005F05EF8D6
:1025300098E7DB00F61A2C4F32000199380007F0BB
:102540002CFD380006F006FA234B1B7D012B89D0A9
:10255000022B0ED0032B85D11F4BDA69002A81D0C4
:10256000013A20021B4B9C466044310005F03EF8C6
:1025700078E7194BDA69002A00D173E7013A2002A3
:10258000144B9C466044310004F090FD6AE7926A67
:10259000002A00D166E7013A20020E4B9C466044B7
:1025A000310004F083FD5DE70E490F4C2A007431C1
:1025B000200007F0F2FC200006F0CCF90B4A13884B
:1025C0000133138017B03CBC90469946A246AB46F7
:1025D000F0BDC046701A0020542C0020E02E0020D0
:1025E000D81B000038570000082E0020AE2E002017
:1025F000B8570000242B0020D42E0020F0B5D6467A
:102600004F4680B5CFB0BA4BDA684C92197C4CAAD1
:1026100011715A694A921A7E4AAB1A7149AB0C225F
:102620001A7000245C7048AB043A1A7030320021F2
:102630003AA807F011FE6422002121A807F00CFE41
:102640001C941D941E941F942094012007F040FEBA
:1026500064340AADA64B99461E0028360027303355
:1026600003931AE0020003990DA807F096FC0DA849
:1026700006F070F9052004F06BFD07F0F7FA02E0B0
:10268000052004F065FD06AB1B786B2B00D1B7E08D
:10269000013CE4B2002C00D125E14B461C332A005A
:1026A00003CB03C21B78137033680893327908ABED
:1026B0001A7107AB0C221A705F7005AB043A1A70DE
:1026C000343239000DA807F0C7FD06AB1F7009238F
:1026D0002A004821052004F01BF98246052007F056
:1026E000C9F95346002BCBD1053308AA4821052050
:1026F00004F00EF90028B5D1022307AA48210530BD
:1027000004F006F90123019306AB0093012305AA07
:102710004821052003F038FCB5E706F005FC052349
:102720004CAA4821052004F0F3F8022349AA4821C5
:10273000052004F0EDF8041E22D1382301933AABB2
:102740000093012348AA4821052003F01DFC041E24
:102750001FD13AA90A7A4B7A1343897A0B4334D0B2
:102760000721F32007F024FC3AAD6A7A0821F32010
:1027700007F01EFCAA7A0921F32007F019FC08E0F3
:102780005B4902004C311CA807F007FC1CA806F0AE
:10279000E1F806F0C9FB05234AAA4821052004F008
:1027A000B7F8002807D1022349AA4821053004F0D0
:1027B000AFF800280BD04E4922004C311CA807F07E
:1027C000ECFB1CA806F0C6F861E01C00E1E76423FE
:1027D000019321AC0094633B48AA4821053003F0E3
:1027E000D3FB2279E37B134351D00A21F32007F076
:1027F000DFFB21ABDA7B0B21F32007F0D9FB46E0AE
:10280000002007F065FD0AAC3A4E331D220003CBD1
:1028100003C21B7813700DAD330010332A0003CBB5
:1028200003C21B781370092322004821052004F0FD
:102830006FF809230DAA4821052004F069F8330038
:102840001C33F2690D921B792B7108AA0C231370AB
:102850000023537007AA082111700A9305330DAAAB
:102860004031052004F054F8022308AA482105202D
:1028700004F04EF8042301930094033B07AA482177
:10288000052003F081FB23789B0600D445E70AAAC4
:10289000174C2300603303CB03C21B7813700DADBC
:1028A00023006C332E0006CB06C61B783370092339
:1028B0000AAA4821052004F02BF809230DAA482173
:1028C000052004F025F878340CCC0CC5237833703F
:1028D00009230DAA4821052004F01AF84FB00CBCBA
:1028E00091469A46F0BD002007F0F2FCF6E7C0469C
:1028F0000870000088700000F0B5CE46474680B5ED
:102900008223DB059C4A1A609C4A1A6102214022FC
:10291000995401329954002242201A540124013062
:102920001C540130195401301C5401301954013029
:1029300019544238482558550135585501355A55CE
:1029400001355955013558550135585501355C55F6
:1029500001355C550135A946595501355A550135A2
:1029600059550135595501355A55513D5527DD55B4
:102970000137DD5554355C5501355A5501355955EA
:1029800002355A55013559550235585501355855B6
:102990002F3D5A55203D253FDD550137DD55233567
:1029A0005A55113D0237DD550137DA550137DD55EE
:1029B0000137B846403746469F553F3FDA55013705
:1029C000DA5501374E46DE55153E9D5501369A556E
:1029D00001369A5501369A5501364E379F55413684
:1029E000674F9F511036674F9F51303699550136CA
:1029F0009955013699550136995501369A55013642
:102A00009955013699550136995501369955013632
:102A10009955013699550136995501369855013623
:102A20009855013699550136995501369C55013610
:102A30009C5501369A550136995501369A550136FD
:102A400099550136995501369A55013699550136F1
:102A5000995505369855013698552F3E9A550136A9
:102A60009A5501369A5501369A5501369A550136CE
:102A70009A5501369D5501369A5501369D550136B8
:102A80009A5501369A5501369A5501369A550336AC
:102A90009D55DE353C4E5E5110358026B6035E51A5
:102AA000303559554225FF35595501355C5544257A
:102AB000FF355C554624FF341A5501341A55482415
:102AC000FF341955013419554A24FF34195501347E
:102AD00019554C24FF341955013419554E24FF342F
:102AE0001955013419555024FF341955013419551D
:102AF0005224FF341955013419555424FF341A5502
:102B000001341A555624FF3418555430FF301A54E6
:102B10005A20FF301A5401301A545C20FF301954E7
:102B2000013019542F31FF315A543221FF314C38C2
:102B3000FF38585401315A543421FF315A5401316D
:102B40005A543621FF315A5401315A543821FF3139
:102B50005A5401315A543A21FF315A5401315A54CE
:102B600002315A543E21FF315A5401315A540CBC9F
:102B700090469946F0BDC04604047209003381C0F6
:102B800010009400003003C06300180770B50120E6
:102B900007F09EFB974AC823D258974B1A6007F05C
:102BA000E3FA964C2070002007F092FB07F0F4FA4D
:102BB0002378934A1370162B00D1A7E014D9812BE8
:102BC00000D1B6E03ED9852B00D1F3E059D9F32BE3
:102BD00000D1FEE0F42B00D1FEE0F12B00D1F5E0B6
:102BE000412007F02DFC6DE0052B00D182E00BD9D0
:102BF0000C2B00D184E01ED8062B00D17DE0072BE2
:102C0000EED102F043FF5DE0022B66D006D8002B28
:102C100056D0012BE4D105F013F953E0032B5FD01C
:102C2000042BDDD1402007F007FC01284AD1754B69
:102C300008221A6046E00D2B65D00E2BD0D101F092
:102C400043F93FE0672B00D16BE00DD8172B60D024
:102C5000602BC5D107F072FB6B4B1B78012B5BD04F
:102C6000684B08221A602DE0682B5ED0802BB7D10C
:102C70000321902007F038FA0321802007F034FA6E
:102C800020E0832B00D176E0842BA9D1012007F02E
:102C90001FFB5C4A80230821D150BFF34F8FBFF345
:102CA0006F8F02F011FC072800D17CE0012006F0B4
:102CB000FFFF544B08221A60002007F009FB01E0D7
:102CC00000F030FE4D4B1878172800D987E04F4BA5
:102CD000C340DB0700D488E070BD04F0EDF8F1E7F5
:102CE000322007F0B5FB012006F0C4FE322007F0C9
:102CF000ABFBE7E700F00AFFE4E7FFF77FFCE1E763
:102D000003F046F8DEE706F02DF9DBE706F048F9B8
:102D1000D8E700F00BFDD5E706F0D0FE02F0BAFFD1
:102D2000D0E7012007F018FACCE7022007F014FAE8
:102D3000C8E7012007F0CCFA324A80230821D1509D
:102D4000BFF34F8FBFF36F8F01F07EFF03F018FDCD
:102D500000280CD0022007F003FB002006F0A8FF9B
:102D6000284B08221A60002007F0B2FAAAE70120D7
:102D700006F09EFFF4E7012007F0AAFA214C08258F
:102D80008023E550BFF34F8FBFF36F8FFFF7B6FA85
:102D9000032007F0E5FA002006F08AFF25600020F6
:102DA00007F096FA8EE7033807F0DAFA002006F00B
:102DB0007FFF7EE7134C08258023E550BFF34F8F3C
:102DC000BFF36F8F05F008FF25607BE701F09CFDE6
:102DD00078E705F007FE75E700F068FA72E7FF286C
:102DE00000D179E7852800D176E7034B196805F013
:102DF00039FA71E7082900207C2E0020BA2E002025
:102E0000BB2E002000E100E0112F0020B750800011
:102E1000F0B5DE4657464E464546E0B50021002354
:102E2000A222924602255032914603265032904605
:102E3000053AFF3A944632E0A02221348454CF343C
:102E40002227075550343E37075550340137075570
:102E50005034013707555034023707555034013785
:102E60000755503402370755503401370755503451
:102E70001837075550340137075550340237075576
:102E80005B4C013707555B4C013707555A4C0B37E4
:102E900007555A4C02550131502900D196E0435450
:102EA0004418270050373B70554FE7193B70554F7A
:102EB000E7193B70544FBB465C442370CCB2002CE6
:102EC000BAD0012C33D0022C56D042181400A034B2
:102ED0002370503423705034237050342370503496
:102EE00023708C24A40014192370A024A4001419A6
:102EF0002370B424A40014192370C824A400141946
:102F00002370DC24A40014192370F024A4001419E5
:102F10002370374C14192370364C14192370364C17
:102F200014192370354CA3465A441370B3E7A122F9
:102F30008354503283544222FF3283549222FF3210
:102F40008354E222FF328354304A8354304A8354FC
:102F5000304A8354304A8354304A8354304A83542D
:102F6000304A07348454304A8354304A8354304AB8
:102F70008354304A83548EE7524685544A468654D9
:102F8000424664468454C922520085548F3AFF3A1F
:102F9000F12464000255284C1B270755274C025585
:102FA000274A8554274A8554274A8554274A843C12
:102FB000FF3C84540522264C0255264C0255264AD5
:102FC0008554264A8554264A865464E70023002403
:102FD0002449C2188225ED00AC46624414700133C6
:102FE0008B42F6D13CBC90469946A246AB46F0BD1A
:102FF000150C0000650C0000B50C0000050D00006C
:10300000F50D0000550D0000A50D00003102000077
:1030100081020000D10200002103000071030000C2
:10302000C103000011040000160C0000660C000033
:10303000B60C0000060D0000320200008202000003
:10304000D20200002203000072030000C20300004D
:1030500012040000170C0000670C0000B70C000001
:10306000070D0000050800005B485854505D2049DA
:103070006E707574204C656E677468204661756C5F
:1030800074205B312C322C345D200D0A00000000CE
:103090005B485854505D2069326320636D6420772B
:1030A000206572726F720D0A000000005B48585470
:1030B000505D2069326320636D6420772D72207526
:1030C00038206572726F720D0A0000005B48585418
:1030D000505D20574950204661696C0D0A00000080
:1030E0005B485854505D2069326320636D642077DB
:1030F0002D7220753332206572726F720D0A0000D6
:103100005B485854505D205444444920485720435C
:10311000524320506173732E0D0A00005B485854CF
:10312000505D205444444920485720435243204690
:1031300061696C2E0D0A00005B485854505D20698F
:10314000326320636D64207720666C61736820654C
:1031500072726F720D0A00005B485854505D204334
:103160006865636B2057454C204661696C0D0A0009
:103170005B485854505D2050726F6772616D2066D5
:103180006C617368204661696C2E0D0A00000000B6
:103190005B485854505D2050726F6772616D2066B5
:1031A0006C61736820646F6E652E0D0A000000006C
:1031B0005B485854505D20494320534C41564520AC
:1031C000256C64203A203078393030305F3030411F
:1031D00038203D3078253032582C20526574727971
:1031E0002025642074696D65730D0A005B4858548E
:1031F000505D2054502048572052657365742E0D41
:103200000A0000005B485854505D2073656E73657A
:10321000206F6666206661696C0D0A005B48585431
:10322000505D2073656E7365206F666620706173F4
:10323000730D0A005B485854505D20436865636B0A
:1032400020436F6E6669672052656C6F6164204F22
:103250004B2E0D0A000000005B485854505D20437F
:103260006865636B20436F6E6669672052656C6F9B
:103270006164204641494C2E0D0A00005B485854B9
:10328000505D20455241534520574950204F4B0D2A
:103290000A0000005B485854505D20576169742053
:1032A000574950206572726F720D0A0070B5032184
:1032B000F42006F019FF04000421F42006F014FFA6
:1032C00005000521F42006F00FFF122C00D9ACE018
:1032D000A400844B1B599F46012D11D0022D00D014
:1032E000A3E0012819D0002800D09EE07E4A802368
:1032F00080214901D150BFF34F8FBFF36F8F94E00E
:10330000012806D0002800D08FE0143007F0A0F884
:103310008BE0133007F098F887E0734B802252015E
:103320001A6082E0012D0AD0022D14D0032D7CD129
:10333000012823D0002878D102F0ABFC75E00128E9
:1033400005D0002871D1143007F082F86DE01330F9
:1033500007F07AF869E001280BD0002865D1624AAD
:10336000802380210901D150BFF34F8FBFF36F8FAE
:103370005BE05D4B802212011A6056E002F089FC8E
:1033800053E0012D0AD0022D14D0032D4DD1012878
:1033900023D0002849D106F065FD46E0012805D07C
:1033A000002842D1323007F053F83EE0313007F0C8
:1033B0004BF83AE001280BD0002836D14A4A802346
:1033C0008021C901D150BFF34F8FBFF36F8F2CE025
:1033D000454B8022D2011A6027E006F043FD24E02D
:1033E000012D0FD0022D20D1012817D000281CD18B
:1033F0003D4A802380214901D150BFF34F8FBFF355
:103400006F8F12E0012805D000280ED1543007F04C
:103410001FF80AE0533007F017F806E0324B80221D
:1034200052011A6001E0012D00D070BD012805D0C5
:103430000028FAD1463007F00BF8F6E7453007F0E0
:1034400003F8F2E7012DF0D1012805D00028ECD1D6
:10345000453006F0FDFFE8E7443006F0F5FFE4E70D
:10346000012DE2D1012805D00028DED1113006F06F
:10347000EFFFDAE7103006F0E7FFD6E7012D0ED0B8
:10348000022DD2D1012816D00028CED1164A802391
:103490000821D150BFF34F8FBFF36F8FC5E70128CD
:1034A00005D00028C1D10D3007F002F8BDE70C307F
:1034B00006F0FAFFB9E70C4B08221A60B5E7022DB7
:1034C000B3D101280AD00028AFD1074A80230221B6
:1034D000D150BFF34F8FBFF36F8FA6E7024B02228D
:1034E0001A60A2E7E487000000E100E0F0B5DE46E4
:1034F00057464E464546E0B59BB0002319933C2203
:1035000000210AA806F0A8FE06F03AF8282006F0E6
:10351000B1FA774804F0A2FA052811D019AB1B784C
:10352000872B7FD049230393483B9946002519AF49
:10353000704B78330493704B48330593CB466DE062
:103540000E246E4D19AEA521280005F035F8142083
:1035500006F090FA280004F081FA3070872861D0D4
:10356000013CE4B2002CEED1DCE7049805F0F2F95E
:103570003B780C2B3ED042460F2A3BD043460133CA
:10358000DBB298466B46187B02235D4A312105F079
:1035900095FA08AE0895357107AC0C232370657059
:1035A00006AB9A460823524613700422112104AB3D
:1035B0009C4661444E4805F0F9FD0523320003990D
:1035C000052003F0A5F9060002232200039C210038
:1035D000052003F09DF90643F6B24B460193009790
:1035E00052462100052002F0CFFC0643F6B2002E21
:1035F000BED0BAE7444600945A4605990AA806F098
:10360000CCFC0AA805F0A6F901239C46E344039CE0
:103610000134A3B203935B46042B03D001239946E4
:10362000A846ABE70024364D364B1E1D0134E4B2EC
:1036300002222900312005F01DFA2D4804F00EFA6F
:103640000C284ED0032C40D0062C41D00E2CEDD9A6
:103650002C481C3005F07EF9042219A92A4804F0F0
:103660008BF8042219A9294804F086F8042219A924
:10367000274804F081F8042219A9264804F07CF8B0
:10368000042219A9244804F077F8042219A9234830
:1036900004F072F8042219A9154804F06DF8042208
:1036A00019A91F4804F068F8042219A91D4804F05C
:1036B00063F8042219A91C4804F05EF81BB03CBC56
:1036C00090469946A246AB46F0BD05F059FFADE7DE
:1036D00006F0DDFA300005F03DF9642006F0CAF985
:1036E000A4E70E2CB4D80748343005F033F9E5E7E9
:1036F000A800009068300000683100005C00009075
:1037000027950000E831000010740010407F001081
:10371000DC0402804800028080000090A00000903D
:10372000E4000090E8000090EC00009070B50120EB
:1037300005F06EFF704B1B785900704A8852132BAE
:103740000DD05A1C132A0FD8D3B26B4A13706C4B8E
:103750001C78012C0AD000246A4B1C7070BD684B89
:1037600001221A700023F0E70023EEE7634B1A00F2
:103770002832002518882D18ADB202339342F9D1B2
:103780001421280003F0A8FE86B25F4B9D4200D8AA
:1037900094E05E4B9D4200D89EE05D4B9D4200D878
:1037A000A8E05C4B9D4276D95B4B9D424AD95B4B6E
:1037B0009D425AD9534B1B78012B18D0002B04D0B3
:1037C0000625022B00D082E08FE0062551E003257C
:1037D0004FE0534B00221A700221002002F050FCEF
:1037E00002244AE04E4B00221A70002445E04C4B64
:1037F00000221A700121002002F042FC02243CE069
:10380000042005F083F8142837D9002006F06CFD59
:10381000042004F0C1FF424B00221A706B1EDBB281
:10382000012B09D9043DEDB20224012D25D8012137
:10383000002002F025FC20E00221100002F020FC14
:1038400002241AE004252F4B1B78012B0FD1344B97
:103850001B78002BD4D1042004F09EFF012006F039
:1038600043FD2F4B01221A7007E00525EBE7002BE3
:103870000ED1280005F0FBFE0400320A0321F320DC
:1038800006F096FBF2B20421F32006F091FB63E709
:10389000022B2AD01BE01B4B1B78012BA2D0002B44
:1038A00095D00325022B12D10221002002F096FEB2
:1038B0000121002002F092FE0024DEE7114B1D786A
:1038C000012D86D0002DD4D0022D0ED00025280049
:1038D00005F0CDFE0400D0E725000A4B1B78012B34
:1038E000B5D0002BC5D0022BF1D1012006F032FD5E
:1038F0000224C2E70225F0E7D02E0020702D002020
:10390000D12E0020D32E00202B560000F35B0000A8
:10391000E767000013D20000EFD70000DFDD0000F2
:10392000D22E002070B5FF21754806F0A1FD06F0EB
:10393000A3FD00281FD1724B1B78002B00D1C1E0E2
:103940006F4A52787B2A17D06E4B00221A801B8850
:103950009BB2FE2B0DD86B4A6948002113889BB29D
:10396000C154138801339BB2138013889BB2FE2B82
:10397000F4D906F079FD70BD614A9278442A1DD0D1
:10398000522A1FD15E49C978462969D0302A1FD1F1
:103990005B49C97830297BD0582A1FD1584BDB7836
:1039A000542BD1D1564B1B79502BCDD1544B5B7935
:1039B0007D2BC9D1002006F055FAC5E75049C978DA
:1039C00052292FD0462AE1D14D49C978462953D0F2
:1039D0004B2AE1D14A49C978542967D0472AB3D143
:1039E000474AD278582AAFD1454A1279582AABD1E2
:1039F000434A52797D2AA7D1072B10D000242300F7
:103A00003F4DEB181A7AE9790919A87906F0D0FA2E
:103A10000134E4B223002A78073A9442F1D306F045
:103A200023FD91E7364909795629CBD134494979A3
:103A30007D29C7D1062B10D000240023304DEB1870
:103A4000D979A8792018C0B206F056FB0134E4B247
:103A500023002A78063A9442F1D306F005FD73E775
:103A600027490979332991D1254949797D298DD172
:103A7000F32006F061FB67E7214909794629A7D1C0
:103A80001F4949797D29A3D11F4B453A1A705BE73D
:103A90001B490979302900D07EE7194949797D29E8
:103AA00000D079E7184B00221A704DE714490979C4
:103AB000502993D1124949797D298FD1012006F0EF
:103AC000D1F941E70E4B5B78002B00D153E70D4B4A
:103AD00000221A801B889BB2FE2B0DD8094A084889
:103AE000002113889BB2C154138801339BB2138009
:103AF00013889BB2FE2BF4D906F0B6FC3BE7C04618
:103B000070250020262E0020122F002010B58CB02A
:103B10001E22002104A806F09FFB03AB00221A70AE
:103B20000521472005F03EFE002800D17DE06A4BCC
:103B300000225A700521122005F034FE00230028CF
:103B400003D1664B5B780133DBB2644A53700521C5
:103B50005C2005F027FE0023002803D1604B5B7832
:103B60000133DBB25E4A53700521072005F01AFECF
:103B70000023002803D15B4B5B780133DBB2594A49
:103B80005370554B1A785B78934200D382E0544BC4
:103B90001A785B78934200D283E0514B5A7002212D
:103BA000012002F06DFA504B1A785B78934200D2F4
:103BB0007CE04D4B5A700421012002F061FA474B22
:103BC0001A785B78934200D275E0444B5A70082112
:103BD000002002F055FA434B1A785B78934201D3E8
:103BE000404B5A703C4C62781321F32006F0E0F908
:103BF0003D4B5A781421F32006F0DAF9374B5A7806
:103C00001521F32006F0D4F9354B5A781621F3200C
:103C100006F0CEF9334B5A781721F32006F0C8F995
:103C20006378042B4CD00CB010BD02AA0B23137088
:103C30000A3B019303AB009301235721033002F0A9
:103C4000A3F900280BD0244A53780133DBB2537018
:103C5000042B00D06EE7254804F07CFE6AE703AC35
:103C600022781221F33006F0A3F922782F23134093
:103C700003D0194B5B780133DBB217494B70D30685
:103C800004D5194A53780133537053E7164B002279
:103C90005A704FE7104B5A700221012002F0F0F9E0
:103CA00081E70221012002F099FC7CE70421012038
:103CB00002F094FC83E70821002002F08FFC8AE7E1
:103CC00003AB1A780949143104A806F066F904A870
:103CD00004F040FEA7E7C046B42E0020BC2E002012
:103CE000B82E0020AC2E0020B02E0020209800001E
:103CF00010B56A4B6A4A1A82DB68DB071DD4694B30
:103D000066480121013BC268114201D1002BF9D163
:103D1000654A52685200920A60498A6300224A75D5
:103D20008A6952070DD55F4A0C000420013AA16947
:103D3000084204D0002AF9D10CE05A4BE8E7002AE7
:103D400008D0564AD268D20604D454481021C2681A
:103D50001142FCD0554A002191611161002B22D003
:103D60004E4B534A5A6217221A6218002C31133AEA
:103D7000435C1342FCD1494B02221A7718002C21D4
:103D8000435C1342FCD1454830210322435C13407D
:103D9000032BFBD1474B484A1A62190004224B6897
:103DA0001A42FCD107E0434B444A1A62190004222C
:103DB0004B681A42FCD13F4A88234021D150100061
:103DC0004831402243581A42FCD03A4ACC23402181
:103DD000D15010008C31402243581A42FCD0354A51
:103DE000D0234021D15010009031402243581A4234
:103DF000FCD0304AD4234021D150100094314022CD
:103E000043581A42FCD02B4AD8234021D1501000ED
:103E10009831402243581A42FCD0264ADC234021E4
:103E2000D15010009C31402243581A42FCD0214A04
:103E3000E4234021D1501000A431402243581A42BB
:103E4000FCD01C4AF4234021D1501000B431402250
:103E500043581A42FCD0174AF8234021D150100091
:103E6000B831402243581A42FCD0124AFC23402168
:103E7000D1501000BC31402243581A42FCD00D4AA8
:103E800082235B004021D15010001900402243588A
:103E90001A42FCD00A4B0B4ADA6110BD00100040F8
:103EA00006030000E02E00002060800000140040A7
:103EB00010000200001C0040070101000601010083
:103EC000000800407E58020070B5052005F0A0FBF8
:103ED000644B1B785900644A88520F2B0DD05A1C32
:103EE0000F2A0FD8D3B25F4A1370604B19780024A1
:103EF000012909D05E4B1C7070BD5C4B01221A7009
:103F00000023F0E70023EEE7574B1C002034002588
:103F100018882D180233A342FAD12D09AEB2544BA2
:103F20001C78012C26D0002C14D0022C49D0032C54
:103F30006ED0504B00221A704F4B64321A704F4BA8
:103F400000249E426DD801234A4A13704C4A1370D4
:103F50000C0066E0474B00221A70474B64321A701F
:103F6000464B9E425DD80123424A1370444A137067
:103F70000C0056E03F4B01221A703F4B3B321A7047
:103F8000404B9E4207D8404B9E424AD83C4B0122B0
:103F90001A70022445E0012006F0A0F9032004F085
:103FA000B5FC1E283DD9002006F098F9032004F046
:103FB000F3FB304B00221A70314B01321A7000248F
:103FC0002FE02C4B01221A702B4B13321A702D4B01
:103FD0009E4207D82D4B9E4223D8294B01221A70AE
:103FE00003241EE0012006F079F9032004F08EFC82
:103FF0001E2816D9002006F071F9032004F0CCFB2E
:104000001C4B00221A701E4B01321A70002408E06B
:10401000184B01221A70184B13321A70194B9E421A
:104020000AD8320A0521F32005F0C2FFEAB20621C0
:10403000F32005F0BDFF5DE7012006F04FF90320F6
:1040400004F064FC1E28ECD9002006F047F9032098
:1040500004F0A2FB074B00221A70094B01321A70C0
:104060000024DEE7C82E0020E82D0020C92E002005
:10407000CF2E0020CC2E0020142F0020330600006D
:10408000CD2E002046070000FF050000CC040000F4
:10409000802800D19EE013D9902800D1B1E048D902
:1040A000F22800D1BBE062D8A02800D1B0E0F1280E
:1040B0005BD189185D4B9C4661440878C0B218E01A
:1040C000622800D170E017D8222862D009D9602870
:1040D00064D061280ED189189131FF310878C0B2BF
:1040E00007E0212804D18918A0310878C0B200E087
:1040F000FE207047FE20FCE765285BD00BD96728BF
:1041000060D0682813D18918C8239B009C4661445D
:104110000878C0B2EDE7642807D189188C239B008A
:104120009C4661440878C0B2E3E7FE20E1E7FE2048
:10413000DFE7832856D00AD984285BD0852812D19E
:1041400089183B4B9C4661440878C0B2D1E781286E
:1041500007D18918F0239B009C4661440878C0B2BF
:10416000C7E7FE20C5E7FE20C3E7FE20C1E7F3282E
:104170000AD0F42806D189182E4B9C466144087851
:10418000C0B2B6E7FE20B4E7891850310878C0B253
:10419000AFE78918F0310878C0B2AAE78918413131
:1041A000FF310878C0B2A4E78918E131FF310878FF
:1041B000C0B29EE78918A0239B009C466144087802
:1041C000C0B296E78918B4239B009C4661440878E6
:1041D000C0B28EE78918DC239B009C4661440878B6
:1041E000C0B286E789188223DB009C4661440878C8
:1041F000C0B27EE78918104B9C4661440878C0B273
:1042000077E789180D4B9C4661440878C0B270E787
:1042100089180B4B9C4661440878C0B269E789183D
:10422000084B9C4661440878C0B262E7550D000017
:10423000650C0000F50D0000150C0000B50C000029
:10424000050D0000A50D000010B5694B9B7D002BEE
:1042500017D0674B5B8B9B0714D5664B2022FF2141
:1042600099540132FD399954624A2023D35C5BB2E0
:10427000013300D18BE05F4A2023D35C062B00D1B1
:104280009DE010BD5A4B5B8BDB0707D5594B2022B5
:10429000FF2199540132FD399954E5E7544B5B8B6A
:1042A0005B0707D5534B2022FF2199540132FE3979
:1042B0009954D9E74F4A2023D35C5BB2032B44D0F7
:1042C000042B0FD0022BCFD11369002B04D0908880
:1042D000002104F0A1F8C7E7464B9888012104F0BB
:1042E0009BF8C1E7434A9369126993420CD0414A53
:1042F0009168CC5C3E48282144540133936102000C
:10430000D369002BFCD1AFE73A4B5B69002B0ED091
:10431000384B9B885B0001221343354A5362D369B3
:10432000002BFCD1334A20330321D1549CE7304A7F
:104330005168C0239B020B435360D369002BFCD10F
:104340002C4A20330621D1548EE72A4A5369013B77
:10435000D2699A420DD0264AD369002BFCD1254A56
:10436000D36923482821415CD068C1540133D3610B
:104370007AE71F4A5168E023DB020B435360D3699D
:10438000002BFCD11B4A20330621D154E3E7202324
:104390000021D154164A5168C0239B020B4353603D
:1043A000D369002BFCD1124B83221A76114B5B6A26
:1043B000002B00D165E70F4A906A984761E7130028
:1043C000002220215A5401315A54094B83321A7663
:1043D0001900533A4B8B1340102BFBD1054B5B6AF2
:1043E000002B00D14DE7034A906A984749E7C04641
:1043F00000140042C02C002010B5694B9B7D002B9F
:1044000017D0674B5B8B9B0714D5664B2022FF218F
:1044100099540132FD399954624A2023D35C5BB22E
:10442000013300D18BE05F4A2023D35C062B00D1FF
:104430009DE010BD5A4B5B8BDB0707D5594B202203
:10444000FF2199540132FD399954E5E7544B5B8BB8
:104450005B0707D5534B2022FF2199540132FE39C7
:104460009954D9E74F4A2023D35C5BB2032B44D045
:10447000042B0FD0022BCFD11369002B04D09088CE
:10448000002103F0F3FFC7E7464B9888012103F0B2
:10449000EDFFC1E7434A9369126993420CD0414A48
:1044A0009168CC5C3E48282144540133936102005A
:1044B000D369002BFCD1AFE73A4B5B69002B0ED0E0
:1044C000384B9B885B0001221343354A5362D36902
:1044D000002BFCD1334A20330321D1549CE7304ACE
:1044E0005168C0239B020B435360D369002BFCD15E
:1044F0002C4A20330621D1548EE72A4A5369013BC6
:10450000D2699A420DD0264AD369002BFCD1254AA4
:10451000D36923482821415CD068C1540133D36159
:104520007AE71F4A5168E023DB020B435360D369EB
:10453000002BFCD11B4A20330621D154E3E7202372
:104540000021D154164A5168C0239B020B4353608B
:10455000D369002BFCD1124B83221A76114B5B6A74
:10456000002B00D165E70F4A906A984761E7130076
:10457000002220215A5401315A54094B83321A76B1
:104580001900533A4B8B1340102BFBD1054B5B6A40
:10459000002B00D14DE7034A906A984749E7C0468F
:1045A00000180042EC2C002010B5694B9B7D002BBD
:1045B00017D0674B5B8B9B0714D5664B2022FF21DE
:1045C00099540132FD399954624A2023D35C5BB27D
:1045D000013300D18BE05F4A2023D35C062B00D14E
:1045E0009DE010BD5A4B5B8BDB0707D5594B202252
:1045F000FF2199540132FD399954E5E7544B5B8B07
:104600005B0707D5534B2022FF2199540132FE3915
:104610009954D9E74F4A2023D35C5BB2032B44D093
:10462000042B0FD0022BCFD11369002B04D090881C
:10463000002103F045FFC7E7464B9888012103F0AE
:104640003FFFC1E7434A9369126993420CD0414A44
:104650009168CC5C3E4828214454013393610200A8
:10466000D369002BFCD1AFE73A4B5B69002B0ED02E
:10467000384B9B885B0001221343354A5362D36950
:10468000002BFCD1334A20330321D1549CE7304A1C
:104690005168C0239B020B435360D369002BFCD1AC
:1046A0002C4A20330621D1548EE72A4A5369013B14
:1046B000D2699A420DD0264AD369002BFCD1254AF3
:1046C000D36923482821415CD068C1540133D361A8
:1046D0007AE71F4A5168E023DB020B435360D3693A
:1046E000002BFCD11B4A20330621D154E3E72023C1
:1046F0000021D154164A5168C0239B020B435360DA
:10470000D369002BFCD1124B83221A76114B5B6AC2
:10471000002B00D165E70F4A906A984761E71300C4
:10472000002220215A5401315A54094B83321A76FF
:104730001900533A4B8B1340102BFBD1054B5B6A8E
:10474000002B00D14DE7034A906A984749E7C046DD
:1047500000100042182D002010B5694B9B7D002BE6
:1047600017D0674B5B8B9B0714D5664B2022FF212C
:1047700099540132FD399954624A2023D35C5BB2CB
:10478000013300D18BE05F4A2023D35C062B00D19C
:104790009DE010BD5A4B5B8BDB0707D5594B2022A0
:1047A000FF2199540132FD399954E5E7544B5B8B55
:1047B0005B0707D5534B2022FF2199540132FE3964
:1047C0009954D9E74F4A2023D35C5BB2032B44D0E2
:1047D000042B0FD0022BCFD11369002B04D090886B
:1047E000002103F097FEC7E7464B9888012103F0AC
:1047F00091FEC1E7434A9369126993420CD0414A42
:104800009168CC5C3E4828214454013393610200F6
:10481000D369002BFCD1AFE73A4B5B69002B0ED07C
:10482000384B9B885B0001221343354A5362D3699E
:10483000002BFCD1334A20330321D1549CE7304A6A
:104840005168C0239B020B435360D369002BFCD1FA
:104850002C4A20330621D1548EE72A4A5369013B62
:10486000D2699A420DD0264AD369002BFCD1254A41
:10487000D36923482821415CD068C1540133D361F6
:104880007AE71F4A5168E023DB020B435360D36988
:10489000002BFCD11B4A20330621D154E3E720230F
:1048A0000021D154164A5168C0239B020B43536028
:1048B000D369002BFCD1124B83221A76114B5B6A11
:1048C000002B00D165E70F4A906A984761E7130013
:1048D000002220215A5401315A54094B83321A764E
:1048E0001900533A4B8B1340102BFBD1054B5B6ADD
:1048F000002B00D14DE7034A906A984749E7C0462C
:10490000000C0042442D0020F0B5654CA5448024E5
:1049100064002200002142A805F09EFC2200002134
:1049200002A805F099FC0321F12005F0DDFB0190C0
:104930000421F12005F0D8FB04000521F12005F049
:10494000D3FB00900621F12005F0CEFB0600070006
:104950000A2C19D8A400534B1B599F4600280CD091
:1049600042AD0024E11D89B2F12005F0BDFB2870A5
:1049700001340135E3B29F42F4D86B461988330005
:1049800042AA019801F0C4FF83239B009D44F0BD1F
:10499000009DA9B2030002AA019C200001F054FF6F
:1049A00022000021F22005F003FB2A000121F22061
:1049B00005F0FEFA32000221F22005F0F9FA002E8D
:1049C000E2D002AD00242A78E11C89B2F22005F081
:1049D000EFFA01340135E3B29F42F4D8D4E70198ED
:1049E00002F0B6FBD0E7019803F036FECCE70120D9
:1049F00005F098FCC8E7002005F094FCC4E7FF220E
:104A00000021F22005F0D4FA009C22000121F220BE
:104A100005F0CEFAFF220221F22005F0C9FA2000AB
:104A200005F00AFD02000321F22005F0C1FAABE710
:104A3000FF220021F22005F0BBFA009C2200012198
:104A4000F22005F0B5FAFF220221F22005F0B0FABB
:104A5000200005F0F9FC200005F0EEFC0200032127
:104A6000F22005F0A5FA8FE7FF220021F22005F0E1
:104A70009FFA009C22000121F22005F099FAFF2202
:104A80000221F22005F094FA200005F0E1FC20005C
:104A900005F0D2FC02000321F22005F089FA73E749
:104AA000F4FDFFFFF4960000493243206572726FF7
:104AB000720D0A00576169742054696D656F7574D1
:104AC000210D0A0057616974204F4B0D0A00000048
:104AD00053746174757320686173206E6F74206203
:104AE00065656E2064652D70726F746563746564AE
:104AF00021210D0A00000000446550726F74656347
:104B000074204572726F72212121210D0A0000006C
:104B100044652D70726F74656374204F4B21210DB5
:104B20000A0000004572617365204572726F722140
:104B300021212121212121210D0A000045726173CB
:104B400065204F4B0D0A0000457261736520466970
:104B50006E6973680D0A00002300000054434F4E35
:104B60002050726F6772616D446174612E2E0D0A60
:104B700000000000466C6173682050726F746563BA
:104B80007465640D0A000000466C617368206E6FE6
:104B9000742050726F746563740D0A0054434F4E55
:104BA000204932432061636B204F4B0D0A00000007
:104BB00045726173652050726F6772616D20446F3A
:104BC0006E650D0A0000000050726F6772616D69BA
:104BD0006E672066696E697368202D2044415441D8
:104BE00020435243203D202564202C20464C415335
:104BF0004820435243203D2025640D0A0000000058
:104C000043524320436865636B20506173732C20CB
:104C100050726F6772616D696E672066696E697345
:104C2000680D0A0043524320436865636B20466168
:104C3000696C2C2050726F6772616D696E672043DA
:104C40006C6F73650D0A000070B5654C002323700E
:104C50006370A3706360237223752022A354E36002
:104C60002361A361E3616362A3620C32A35405F084
:104C7000C7F90321812005F037FA20700421812033
:104C800005F032FA60700821812005F02DFAA0703D
:104C90000921812003F058FD6060A378012B0DD01D
:104CA000022B27D0032B55D00022002500244C4B8B
:104CB0001C63601958638018986370BD18218120A7
:104CC00005F012FA464C20721921812003F03CFDB8
:104CD000E0601D21812003F037FD030A23610725D1
:104CE0001D4002D1C40A2A00E1E7C00A441C002288
:104CF0000025DCE71821812005F0F6F9384D2872EF
:104D00002421812005F0F0F928752521812003F068
:104D10001BFDE8602921812003F016FD030A2B61A9
:104D2000C40A5B0701D0C00A441C2D21812003F076
:104D30000BFD2B4DA8613121812003F005FD030AF5
:104D4000EB6107221A40C50A002AB0D0C00A451CF0
:104D50000022ACE71821812005F0C6F9204D287209
:104D60002421812005F0C0F928753021812005F02B
:104D7000BBF92023E8543121812003F0E5FCE860F1
:104D80003521812003F0E0FC030A2B61C40A5B0794
:104D900001D0C00A441C3921812003F0D5FC104DFC
:104DA000A8613D21812003F0CFFC030AEB61C50A15
:104DB0005B0701D0C00A451C4121812003F0C4FCDF
:104DC000074E70624521812003F0BEFC030AB362E6
:104DD000C20A5B0700D16AE7C00A421C67E7C04607
:104DE000542C0020802800D17FE012D9902800D1D7
:104DF0008FE03AD9F22800D197E04CD8A02800D112
:104E00008DE0F12854D189184B4A944661440B70C7
:104E10004EE0622856D011D822284AD008D96028FE
:104E20004BD0612844D189189131FF310B703FE09C
:104E300021283DD18918A0310B7039E0652846D072
:104E40000AD967284AD0682832D18918C822920026
:104E5000944661440B702BE0642829D189188C2278
:104E60009200944661440B7022E0832844D009D913
:104E7000842848D085281BD18918304A944661443B
:104E80000B7015E0812813D18918F0229200944606
:104E900061440B700CE0F32807D0F42808D189187E
:104EA000274A944661440B7002E0891850310B7018
:104EB00070478918F0310B70FAE789184131FF31DA
:104EC0000B70F5E78918E131FF310B70F0E78918B5
:104ED000A0229200944661440B70E9E78918B4223D
:104EE0009200944661440B70E2E78918DC2292003C
:104EF000944661440B70DBE789188222D200944605
:104F000061440B70D4E789180E4A944661440B70D3
:104F1000CEE789180C4A944661440B70C8E789189B
:104F20000A4A944661440B70C2E78918084A9446BD
:104F300061440B70BCE7C046550D0000650C0000D5
:104F4000F50D0000150C0000B50C0000050D00006B
:104F5000A50D0000F0B5C64600B5574B9B7D002B54
:104F600017D0554A137EDBB2927D52B2002A13DB72
:104F7000514A137EDBB2927DD20702D5DB0700D502
:104F800082E04D4A137EDBB2927D520701D55B076A
:104F90004BD404BC9046F0BD5BB2002BE8DA464B24
:104FA0005B8B07221340E3D0444CE38504F0CEFB37
:104FB000414B84221A752C230022E254636A002B91
:104FC000D6D03E4A906A9847D2E7BB68F35C0B851F
:104FD000936801339360936898460B7E23420BD00D
:104FE000404509D94B682B40012BEED163469B68A5
:104FF0005B009B5B0B85EBE7304B9A685B689A42E2
:10500000BFD32E4B00221A755A602B4A012111750D
:10501000DB68002BB5D0294A10699847B1E72749CA
:105020000A6A89695200535215E0244A2C23D35C42
:10503000002BAED0214B1A6ADB699A42A9D21E4AD4
:10504000138D9BB2516807220A40012AE7D01B4A00
:10505000116A92695354194B1A6A01321A621A6A18
:10506000DB699A4200D094E7144B00222C215A5459
:10507000DA61114A583111755B6A002B00D188E75B
:105080000E4A906A984784E70C4B1B7D002B00D199
:1050900077E70A4B9A685868074B1B7EDB07ABD54E
:1050A0008242A9D2054B1E68034907259C461F0072
:1050B0001A00012496E7C04600080042902C002008
:1050C000F8B54D4B1A68501C18604C4A13680133F0
:1050D00013604B4A1368013313604A4B1B78FF2B54
:1050E00001D00133DBB2474A13700A2101F082FF7D
:1050F000002904D0444B1B78012B03D0F8BD03F0EA
:105100004DFCF7E7414B1B78002BF7D10024404FB3
:105110003E00002508E0E0B205F00EF835550134F8
:1051200080235B009C4203D03B5D002BF7D0F2E76D
:10513000314B1868052101F05DFF002939D02E4B55
:1051400018680A2101F056FF002936D02A4B18684A
:105150000F2101F04FFF002936D0274B186814218A
:1051600001F048FF002933D0234B1868642101F077
:1051700041FF002933D0204B1868FA21890001F043
:1051800039FF0029BAD1162004F0D6FF0D2004F013
:10519000D3FF002004F0D0FF1E4B1B78012B25D03D
:1051A0001D4B1B78012BA9D11C4A137801331370B6
:1051B000A4E7012004F0C0FFC1E7172004F0BCFF02
:1051C000072004F0B9FFC1E70E2004F0B5FFC4E7E3
:1051D0000C2004F0B1FF042004F0AEFFC4E705206A
:1051E00004F0AAFF022004F0A7FFC4E70C4A1378DA
:1051F00001331370D4E7C046882E0020802E002093
:10520000842E0020C12E0020C02E0020570E00202A
:1052100070220020560E0020550E0020BE2E0020C9
:10522000BF2E0020F8B5DE4657464E464546E0B54F
:10523000524B00221A700500002399460024504B5F
:105240009B463EE04E4BDB19C0229A704C4B9C466D
:105250006744BA784346591D89B2602004F0A8FE1D
:1052600053461B783F221A40FA70013671007618B7
:105270007600B6B23100602004F09AFE53465A78A8
:105280003A714346D91D89B2602004F091FE53461D
:105290009A787A714146083189B2602004F088FE1C
:1052A0005346DA78BA710336B1B2602004F080FE5A
:1052B0004B460133DBB299460134E4B20135282C68
:1052C0002AD0A307F8D1AA462B783F229343F3D0E4
:1052D0004E4677004F447F00A20801325B46DB193F
:1052E0005A70B846391D89B2602004F061FE2B78EF
:1052F0009B09012BA6D0022B09D0032BA6D1204B52
:10530000DB19A0229A701D4B9F3A1A709EE71C4B26
:10531000DB1990229A7099E7194C4B462370602252
:105320000021602004F044FE00220121602004F0EE
:105330003FFE3E220221602004F03AFE2278032143
:10534000602004F035FE0021602004F0CDFE050051
:1053500001242100602004F0C7FE4540EDB2013475
:10536000A4B2402CF5D12A004021602004F020FE98
:105370003CBC90469946A246AB46F8BDC72E0020DD
:1053800070260020F0B5B3B0040001280BD000282F
:1053900000D189E0022800D180E0032800D180E01C
:1053A000002033B0F0BD6422002119A804F054FF9E
:1053B0004022002109A804F04FFF00230793013B7E
:1053C00008933A4B1B780A2B0BD00B2B11D00023E0
:1053D0000593002572B6F0231B02EE18344BEF182C
:1053E00018E0344B0B221A60334B059380256D0275
:1053F000F0E7304B0A221A60304B059380256D018F
:10540000E8E7089A102109A803F0C4FB089040358A
:10541000B54210D004F012FE0028FBD12A00402132
:1054200009A805F061F8BD42EBD1089A0F2109A83F
:1054300003F0B0FB0890089BDB43089304F0FEFDEB
:105440000028FBD1059A042107A805F04DF8079E16
:105450000425089804F0ECFC301A434258414042BD
:105460000440013D002DF4D162B6089804F0E0FC40
:1054700002001349079B0393124B1B6802930B4BCB
:105480001B780193042300932300203119A804F012
:1054900084FD19A803F05EFA200082E701F060FCA9
:1054A0007FE704F03DF97CE701207AE7D42E002065
:1054B000C0EF00008C2E0020FCEF0100FCFF00007C
:1054C00038570000E42A0020F0B5C64600B59AB06F
:1054D0005522002104A804F0BFFE434B1F68FF4380
:1054E00000250124FF26E91C89B2842004F0FCFD7C
:1054F000EB003A00DA40130033401B1A5842434194
:105500005B421C400135042DEDD12500012C23D038
:1055100022001F21F32004F04BFD2A002021F3205C
:1055200004F046FD3149324B1B8802930195314B03
:105530001B68009323003A00603104A804F02DFD9D
:1055400004A803F007FA284B012252421A602800EF
:105550001AB004BC9046F0BD274D287AFFF712FF21
:105560008046287DFFF70EFF06002023E85CFFF74A
:1055700009FF76008000064345463543EDB2072D0E
:10558000C6D172B604F05AFD0028FBD1F8304002B3
:1055900004F05EFDF8267602300004F01DFA0028C3
:1055A000FAD004F04BFD0028FBD1144804F050FD64
:1055B000124E300004F010FA0028FAD0104B1A688E
:1055C0000C4B1A601E00F8214902300004F090FFD5
:1055D0000028F8D0074E0949300004F089FF002860
:1055E000F9D062B694E7C046E02E0020B85700001C
:1055F000AE2E0020E42A0020542C002000F10100EF
:105600008C2E0020F0B58FB00D934B680C90069354
:105610008B680D000793CB6816000393069B0F68F9
:10562000002B44DB02239F4310233B400A93079B3C
:1056300004930A9B002B07D0726833681343079AC0
:1056400002D01300023B049308233B400B935A1EE5
:105650009341049AD31A04933368039A08937368A6
:1056600009932B695C1E00231355069B0593012C9F
:1056700020DC0A9B002B52D10B9B002B03D0202354
:10568000039A013C13552B6900975A1E039B121B6A
:1056900019190C98079B02F02DF90C9B5B68DB0530
:1056A00003D56B68984200DA18000FB0F0BD0123F3
:1056B0000693B9E7089B099A13430CD1059B002B6D
:1056C00009DC069A049B9B1A059A9B18002BD0DDD7
:1056D00002231F42CDD00F22089B013C134018002B
:1056E0005730092B01DC303318000D9B413B192B3F
:1056F00006D820230343613B192B01D804F0C3FDD6
:10570000039B1855059B013B0593099B1A07089BB2
:105710001B091A43099B08921B090993A7E70CCEA2
:105720001343A9D0039B0D9A1B19013B1A70302318
:10573000039A023C13559FE7464C4153482053546B
:105740004152542E2041505020466C6167206973AD
:105750002025580D0A0000004D4355204352432098
:10576000444F4E452E204352433A256C58207538FD
:105770004D4355726573756C743A25642073697A6C
:10578000653A256C64204150503A255820415050CC
:1057900020466C61673A256C5820524464617461FC
:1057A0003A2530386C580D0A000000002D2D2D438D
:1057B00052432023256C643A3A2530386C580D0A40
:1057C000000000004D43552070726F6772616D20BC
:1057D000666C6173682023256C640D0A000000006C
:1057E00050726F6772616D20466C61736820422D44
:1057F000322023256C640D0A0000000050726F6790
:1058000072616D20466C61736820422D3320232520
:105810006C640D0A00000000545820435243204499
:105820004F4E452E20204352433A256C5820753860
:105830005458726573756C743A2564204150502039
:10584000466C61673A256C58207538726573756CC3
:10585000743A2564202D20746F74616C25640D0AE0
:105860000000C046F0B5DE4657464E464546E0B518
:105870003C4CA54481468846130A9B4664D04D1E85
:10588000002601AC384B3022944663449A461EE011
:10589000012004F0EFF8354B1A78354F398808208D
:1058A00003F04CFC012004F0E5F8324B1A783988FB
:1058B000082003F043FC02F0BBFF002844D0F34370
:1058C0009B073DD001360135FF35B3453CD9012258
:1058D0000823FF336B440220FF30A95C9954013246
:1058E0008242FAD14B46581C4346C01A401903F075
:1058F00093FB012004F0BEF81F4B1F888122520049
:105900000021200004F0A8FC3B0A237067700122EC
:105910000823FF336B440227FF371119985C487046
:105920000132BA42F9D181235B0022000821022012
:1059300000F0EEFF0028ABD0104803F00BF8A7E70B
:10594000504603F007F8BDE70748343003F002F88B
:10595000012083239B009D443CBC90469946A2466F
:10596000AB46F0BDF4FDFFFF284B0000082F0020E0
:10597000EA2E0020002F0020EC2E0020A84A000074
:1059800010B50521402003F09FFE00282DD104F022
:10599000BDFC142800D810BD0121F32004F0A4FBA5
:1059A000602808D000220121F32004F001FB4020F0
:1059B00004F04AFDEFE72F4B1B78022B03D804F0CD
:1059C000C3FC012809D0012004F04CFA2A4B08221C
:1059D0001A60284B00221A70E4E75F3004F0B4FB31
:1059E000244A137801331370DCE7244AC823D258C1
:1059F000234B1A6004F0C0FB224A1070224A107038
:105A0000612822D00DD9622829D06528C3D1402031
:105A100004F01EFD6521012004F06EFB04F070FC13
:105A2000B9E721280BD06028B5D1402004F010FD43
:105A30006021012004F060FB04F062FCABE7402031
:105A400004F006FD04F05CFCA5E7402004F000FD36
:105A50006121012004F050FB04F052FC9BE7402040
:105A600004F0F6FC6221012004F046FB04F048FC3F
:105A700091E7C046AB2E002000E100E07027002037
:105A80007C2E0020BA2E0020BB2E002070B50A20EC
:105A900003F0BEFD374C23785B00374A98520B2049
:105AA00003F0B6FD23785900344A8852132B0AD0EC
:105AB0005A1C132A0CD8D3B22E4A1370304B1B78C1
:105AC000012B07D070BD2E4B01221A700023F3E783
:105AD0000023F1E7284B1900283100201A8880188C
:105AE00002338B42FAD1142101F0F6FC040085B296
:105AF000244BEB18244A9BB2934230D9102100204A
:105B000000F0BEFA2A0A1B21F32004F051FAE2B297
:105B10001C21F32004F04CFA184B19002831002006
:105B20001A88801802338B42FAD1142101F0D4FC78
:105B3000040085B2154BEB18154A9BB2934213D95A
:105B40000121012000F09CFA2A0A1D21F32004F013
:105B50002FFAE2B21E21F32004F02AFAB2E7102154
:105B6000002000F03BFDCDE70121012000F036FDD3
:105B7000EAE7C046D72E0020982D0020C02D002037
:105B8000D82E0020BBFCFFFF3303000041FCFFFFC9
:105B90003703000010B500283ED001283BD101306A
:105BA00004F052FC0A2004F04FFC372004F04CFCB7
:105BB000112004F049FC052003F05CFF462004F0AE
:105BC00043FC052003F056FF242004F03DFC052093
:105BD00003F050FF142004F037FC052003F04AFFC7
:105BE000452004F031FC232003F044FF542004F04E
:105BF0002BFC0A2003F03EFF322004F025FC50204D
:105C000003F038FF532004F01FFC782003F032FF2C
:105C10001B2004F019FC10BD052003F02BFF1B20F6
:105C200004F016FC0F2003F025FF532004F010FCB5
:105C3000782003F01FFF242004F00AFC1E2003F04C
:105C400019FF322004F004FC542004F001FC14205D
:105C500004F0FEFB282003F00DFF452004F0F8FBC4
:105C60000F2003F007FF462004F0F2FB1E2003F094
:105C700001FF112004F0ECFB372004F0E9FB1420B5
:105C800003F0F8FE022004F0E3FB0A2004F0E0FB3E
:105C9000C1E7704710B592B003AC38220021200054
:105CA00004F0DAFA11AA3023137008330193009438
:105CB000373B4821052000F067F900284ED103AB9F
:105CC000432169441A788018C0B201338B42F9D15C
:105CD000404203AA3723D35CC0B2834214D0FA22D5
:105CE0002721F32004F064F9274B1B78032B42D8BB
:105CF000254A137801331370012003F0BBFE234BB8
:105D000008221A6012B010BD1F4B00221A70013217
:105D10002621F32004F04CF900222721F32004F07F
:105D200047F903A8FFF77EFA0321602004F0DCF9AD
:105D3000002819D1012003F09DFE03AC3523E25C5D
:105D40002821F32004F034F93623E25C2921F320E2
:105D500004F02EF90D4B08221A60D3E7CC2227213C
:105D6000F32004F025F9BFE7602004F0EDF90020EE
:105D700004F078F8C6E703F079FFEE222721F3203C
:105D800004F016F9B4E7C046C62E002000E100E09A
:105D900030B583B0002300936A4693806D4600249B
:105DA000A1B2222004F0A0F9287001340135062C9C
:105DB000F6D16B46DC781A792E4B1B78181CDBB2B7
:105DC000934200D9101CC0B2022C20D0012C2ED03E
:105DD000294B1B78002B40D122000321622004F0C4
:105DE000E7F8264B1A780421622004F0E1F8244BEE
:105DF0001A780521622004F0DBF80721622003F005
:105E000075F8204B1B78012B2DD003B030BD1E4BF5
:105E100000221A70002102F00BF9174B1B78002B9F
:105E200002D104F051FBD3E704F052FBD0E7164B4C
:105E30001B7883420BD004331A1CDBB2834200D997
:105E4000021CD1B2104B1A7002F0F2F8C0E7010048
:105E500002F0EEF804F03CFBBAE7012203216220D5
:105E600004F0A6F8BDE7074B00221A70622004F088
:105E70006BF9CAE7142F0020CA2E0020CB2E002079
:105E8000CC2E0020CD2E0020CE2E0020F0B5D64600
:105E90004F464646C0B5C6B080460E1E57D00024B9
:105EA0000127314B9A46314B9946314B7C33029353
:105EB000304B1433039306E0029802F04BFD0027A9
:105EC0000134A64244D0534618886043404403F04E
:105ED000A3F84B461A78284D2988082003F02EF99C
:105EE000264B1A782988082003F028F902F0A0FC34
:105EF000234B1A782988082003F020F902F098FC37
:105F0000204B1A8805AB002119805A7080235B0052
:105F1000019306AB0093022305AA0831022000F08A
:105F200033F8012003F0A6FD06AB1B78FF2BC3D18D
:105F3000EE3B02AA9446634446A91A78FF2ABBD1D5
:105F400001338B42F9D1039802F004FDB8E7012731
:105F50000848203002F0FEFC380046B01CBC9046D9
:105F60009946A246F0BDC0460C2F0020082F002005
:105F7000A84A0000284B0000EA2E0020062F00202F
:105F8000042F0020F22E002030B583B0040008005A
:105F900011001A00032C32D014D9042C45D0052C42
:105FA00027D1079B0093069B03F08CF9002400285F
:105FB00058D0304D03F070FC00284CD0AC4255D086
:105FC0000134F7E7022C11D1079B0093069B03F0E5
:105FD000E9F900280FD0284C03F086FC002802D0F5
:105FE000013C002CF8D104F017F900E0032003B0C5
:105FF00030BD0320FBE701F0B9FF0320F7E7079B63
:106000000093069B03F096F900280AD01A4C03F07F
:1060100057FC002802D0013C002CF8D104F0F4F821
:10602000E5E702F065F82000E1E7079B0093069B97
:1060300003F010F900280AD00F4C03F019FC0028D7
:1060400002D0013C002CF8D104F0CEF8CFE702F0EA
:106050001FF80320CBE704F0CFF8084B9C42C6D9C9
:106060000420C4E701F050FF0320C0E704F0C4F8A7
:106070000420BCE7922B0000932B0000912B000022
:1060800070B5384B1C78002826D10A0022431A70BC
:10609000A24220D00321652003F08AFF324C2278EF
:1060A0000421652003F084FF00220521652003F010
:1060B0007FFF0721652002F019FF652004F044F8F6
:1060C000284B1A782221F32003F072FF2278232133
:1060D000F32003F06DFF70BD234B1D78012805D020
:1060E000214B1B78AB42F6D02200D3E71A002B00DD
:1060F0000B431370CB0619D40B07F1D01B4E32782B
:106100001C231A4332700321A02003F051FF002208
:106110000421A02003F04CFF0621A02002F0E6FE9F
:1061200032782121F32003F043FF16E00F4E32783E
